:10000000C5EF16F0ECC4FAF4ECC4FBF4ED52ED527B
:10001000EFC4E8F4F96E12000D6A400E0C6E0F6A20
:100020000E6E116A800E106E156A146A176A166ACF
:10003000136A080E126E1880050E0B6E200E0A6EE3
:100040000A0E016E050E026E12000501CC51CE03A0
:10005000F3C401F5F4C400F5CF03F3500026CD51ED
:10006000CE03F3500020026E00011200080E43245C
:10007000E96E000E4420EA6EECC448F5ED52EFC480
:1000800047F519504724456E1A504820466E020E17
:100090004324E96E000E4420EA6EECC448F5ED52AC
:1000A000EFC447F5020E4726000E4822010E475EB8
:1000B000000E485AD8904830036E4730026E180F31
:1000C000476E000E0320486E040E4324E96E000EB6
:1000D0004420EA6EECC44AF5ED52EFC449F5020E35
:1000E0004926000E4A22010E495E000E4A5AD89057
:1000F0004A30036E4930026E472603504822060EEE
:100100004324E96E000E4420EA6EECC44AF5ED5239
:10011000EFC449F5020E4926000E4A22010E495E3F
:10012000000E4A5AD8904A30036E4930026E472674
:100130000350482246C5CDF545C5CCF50501CF6B2A
:100140000B0ECE6F000181DF02C54AF501C549F5EE
:10015000020E4926000E4A22010E495E000E4A5A3E
:10016000D8904A30036E4930026E47260350482229
:10017000020E4524496E000E46204A6E010E495E6D
:10018000000E4A5AD8904A30036E4930026E472416
:10019000016E4850032201C502F5D890023603369D
:1001A00002C501F503C502F5C8EF01F0016603D0F1
:1001B000026602D007D0022A00C5EEF4012EFCD759
:1001C000022EFAD70CEF02F00A0E05016C25E96E3B
:1001D000000E6D21EA6EECC47AF5ED52EFC479F5AC
:1001E0001C0E7925E96E000E7A21EA6EECC47CF5CE
:1001F000ED52EFC47BF51E0E7925E96E000E7A21D3
:10020000EA6EECC403F5ED52EF507B5D06E103505E
:100210007C5D03E1000E016E3AD0180E7925E96E7F
:10022000000E7A21EA6EECC47CF5ED52EFC47BF54A
:100230001C0E7925E96E000E7A21EA6EECC4CDF52C
:10024000ED52EFC4CCF5CF6B0B0ECE6F0001FDDE8F
:1002500002C503F5015005017B25E96E7C510220A2
:10026000EA6E050EE26E6E0EE16E0B0E016EE6C4D6
:10027000EEF4012EFCD71C0E7925E96E000E7A21D2
:10028000EA6E010EEE2601E3EF2A010E016E000177
:10029000AEEF01F0680E506E650E516E6C0E526E30
:1002A000700E536E546A500E556E720E566E690E75
:1002B000576E6E0E586E740E596E200E5A6E6C0E7E
:1002C0005B6E690E5C6E730E5D6E740E5E6E200E5C
:1002D0005F6E6F0E0501606F660E616F200E626FBC
:1002E000630E636F6F0E646F6D0E656F666F610EE8
:1002F000676F6E0E686F640E696F730E6A6F6B6B5B
:10030000050E466E500E456E050E486E550E476E34
:10031000010E496E4A6A4B6A4F6A4E6A1D0E4D6E57
:10032000E60E4C6E44C56DF543C56CF545C56EF5DE
:1003300046C56FF547C570F548C571F549C572F5F5
:100340004AC573F54BC574F54CC575F54DC576F5C5
:100350004EC577F54FC578F5000136D7A1EF03F00C
:10036000396A386A080E3624E96E000E3720EA6EC4
:10037000ECC444F5ED52EFC443F5195043243A6EF2
:100380001A5044203B6E37C544F536C543F56ED64A
:1003900002C53DF501C53CF53E900A0E3624E96ED6
:1003A000000E3720EA6EECC444F5ED52EFC443F57D
:1003B000435207E1445205E1000E016E026EC5D1C1
:1003C00016D00C0E3624E96E000E3720EA6EECC40F
:1003D00044F5ED52EFC443F544503D5C08E303E1BE
:1003E0003C50435C04E2000E016E026EAED10A0E78
:1003F0003624E96E000E3720EA6EECC440F5ED526B
:10040000EFC43FF540C5EAF43FC5E9F4006A3DC5D5
:1004100002F53CC501F5CAD640C539F53FC538F5EA
:100420000C0E3F26000E40220A0E3824E96E000E04
:100430003920EA6E40C5ECF4ED523FC5EFF4240ECE
:100440003F26000E40220A0E3824E96E000E3920A5
:10045000EA6EECC442F5ED52EFC441F50A0E4124B8
:10046000E96E000E4220EA6E40C5ECF4ED523FC545
:10047000EFF4020E3624E96E000E3720EA6EECC46B
:1004800044F5ED52EFC443F5020E4326000E44221C
:10049000010E435E000E445AD89044324332D89045
:1004A0004334026E4434036E02503F260350402210
:1004B000120E4124E96E000E4220EA6E40C5ECF4B3
:1004C000ED523FC5EFF4040E3624E96E000E3720DE
:1004D000EA6EECC444F5ED52EFC443F5020E432638
:1004E000000E4422010E435E000E445AD89044325E
:1004F0004332D8904334026E4434036E02503F2698
:1005000003504022180E4124E96E000E4220EA6E8C
:1005100040C5ECF4ED523FC5EFF43BC5CDF53AC50F
:10052000CCF50501CF6B0B0ECE6F00018EDD02C541
:1005300044F501C543F5020E4326000E4422010E88
:10054000435E000E445AD89044324332D89043342C
:10055000026E4434036E02503F26035040221A0EAE
:100560004124E96E000E4220EA6E40C5ECF4ED52E3
:100570003FC5EFF4020E3A24436E000E3B20446E5A
:10058000010E435E000E445AD89044324332D89054
:100590004334026E4434036E02503F26035040221F
:1005A000020E4124E96E000E4220EA6E40C5ECF4D2
:1005B000ED523FC5EFF4040E4124016E000E4220BF
:1005C000036E446E060E3624E96E000E3720EA6E86
:1005D000ECC403F5ED52EFC445F544C5EAF401C59A
:1005E000E9F403C5ECF4ED5245C5EFF43EA009D0A3
:1005F000230E4124E96E000E4220EA6EEF500409FA
:10060000EF6E0E0E3624E96E000E3720EA6EEFA074
:1006100009D0230E4124E96E000E4220EA6EEF500D
:100620002009EF6E100E4124016E000E4220036E71
:10063000446E020E3624E96E000E3720EA6EECC4DA
:1006400003F5ED52EFC445F544C5EAF401C5E9F4FC
:1006500003C5ECF4ED5245C5EFF40C0E4124E96EF0
:10066000000E4220EA6EEC6AED52EF6A0E0E412453
:10067000E96E000E4220EA6EEC6AED52EF6A160E49
:100680004124016E000E4220036E446E040E362497
:10069000E96E000E3720EA6EECC403F5ED52EFC4AC
:1006A00045F544C5EAF401C5E9F403C5ECF4ED529F
:1006B00045C5EFF41C0E4124E96E000E4220EA6E9F
:1006C000EC6AED52EF6A1E0E4124016E000E4220CC
:1006D00001C543F5446E080E3624E96E000E37203E
:1006E000EA6EECC446F5ED52EFC445F519504524C9
:1006F000016E1A50462044C5EAF443C5E9F4EC6E95
:10070000ED5201C5EFF4220E4124E96E000E4220A5
:10071000EA6EEF6A36C5E9F437C5EAF4ECC403F5CE
:10072000ED52EFC445F542C5EAF441C5E9F403C50D
:10073000ECF4ED5245C5EFF439C544F538C543F541
:10074000A9D538C501F539C502F5B1EF03F064DC70
:1007500002C535F501C534F502C537F501C536F5D5
:10076000FFD50250D0EF16F01BC61DF61AC61CF6B8
:100770001DC6EAF406011CC6E9F4EF5206E01C2B84
:10078000D8B41D2B0001F4D706011A511C5D006E70
:100790001B511D59036E00C501F5026E00011200C8
:1007A000120015C61BF614C61AF6DEDF02C517F6D0
:1007B00001C516F60601196B186B1951175D21E377
:1007C00003E11651185D1DE212C600F51351016ECA
:1007D000026A1A6F1B6B14511825E96E1551192105
:1007E000EA6EEFC427F5EA6A1AC6E9F413C626F5DD
:1007F00012C625F5000106DC0601182BD8B4192B0A
:10080000DCD700011200040E3B24E96E000E3C20F0
:10081000EA6EECC43EF5ED52EFC43DF5020E3B240A
:10082000E96E000E3C20EA6EECC403F5ED52EFC415
:1008300001F503503E5C23E303E101503D5C1FE3FF
:10084000040E3B24E96E000E3C20EA6EECC43EF53B
:10085000ED52EFC43DF5020E3B24E96E000E3C2044
:10086000EA6EECC403F5ED52EF503D5C006E0350B0
:100870003E58036E00C501F5026E29D028D0060E41
:100880003B24E96E000E3C20EA6EECC43EF5ED52CE
:10089000EFC43DF5020E3B24E96E000E3C20EA6EEB
:1008A000ECC403F5ED52EF503D5E03503E5A040E8A
:1008B0003B24E96E000E3C20EA6EECC403F5ED52D9
:1008C000EF503D24016E3E50032203C502F527EF91
:1008D00016F0016A026A006A036A475002E1465054
:1008E00018E0100E486ED890443645360036033670
:1008F0004750035C02E14650005C07E34650005E4F
:10090000D8A003064750035ED88001360236482E31
:10091000EAD7EEEF04F03D6A020E3B24E96E000ECA
:100920003C20EA6EECC43FF5ED52EFC43EF5040EF8
:100930003B24E96E000E3C20EA6EECC403F5ED5258
:10094000EF503E5C03E103503F5C51E03BC5E9F4EE
:100950003CC5EAF4ECC43FF5ED52EFC43EF5020E9F
:100960003B24E96E000E3C20EA6EECC441F5ED52EA
:10097000EFC440F53E504024E96E3F504120EA6EFE
:10098000EFC43DF5020E3B24016E000E3C20036EC9
:1009900001C53EF53F6E020E3B24E96E000E3C2081
:1009A000EA6EECC441F5ED52EFC440F5010E40266D
:1009B000000E4122060E3B24E96E000E3C20EA6E3A
:1009C000ECC403F5ED52EFC446F503C543F541C54C
:1009D00045F540C544F503C547F57BD73FC5EAF467
:1009E0003EC5E9F403C5ECF4ED5200C5EFF43DC596
:1009F00001F538EF16F00A0E4B24E96E000E4C207C
:100A0000EA6EECC44EF5ED52EFC44DF5200E4D24C8
:100A1000E96E000E4E20EA6EECC454F5ED52EFC4C0
:100A200053F54DC5E9F44EC5EAF4ECC41BF6ED529E
:100A3000EFC41AF699DE015053244F6E0250542031
:100A4000506E4BC500F54C50016E026A536E546AED
:100A5000EA6AE96E4CC526F54BC525F50D0E276EE5
:100A600002EC00F0526A516A5250505C19E303E103
:100A70004F50515C15E24BC500F54C50016E026AB7
:100A8000536E546AEA6AE96E4CC526F54BC525F5E6
:100A9000200E276E02EC00F0512AD8B4522AE4D777
:100AA0004BC500F54C50016E026A536E546AEA6AF7
:100AB000E96E4CC526F54BC525F50D0E276E02ECEB
:100AC00000F0200E4D24E96E000E4E20EA6EEC6A16
:100AD000ED52EF6A12000501D05302E1D15304E058
:100AE000D25306E1D35304E1FF0E016E026E3BD0F8
:100AF000D56BD46BD76B010ED66FD251D65D04E1A6
:100B0000D351D75D01E11ED0D051D425E96ED1512A
:100B1000D521EA6EEF5212E1D62BD8B4D72B010EB5
:100B2000D425D86F000ED521D96FD051D825E96EC4
:100B3000D151D921EA6EEF5201E104D0D42BD8B4BF
:100B4000D52BDBD7D051D425E96ED151D521EA6E12
:100B5000EF5206E0D4C501F5D5C502F504D003D0A7
:100B6000FF0E016E026E00011200CBC5D1F5CAC5A1
:100B7000D0F5CDC5D3F5CCC5D2F5ADDF02C5CFF5E7
:100B800001C5CEF50501CE3D03D0CF3D01D009D042
:100B9000CA51CE25016ECB51CF21036E026E04D017
:100BA00003D0000E016E026E0001120005016553B4
:100BB00002E1665312E0060E6325E96E000E642121
:100BC000EA6EECC403F5ED52EFC401F50350665D27
:100BD00008E303E16551015C04E2000E016E026E60
:100BE00011D063C5E9F464C5EAF4ECC4CBF5ED5269
:100BF000EFC4CAF566C5CDF565C5CCF50001B5DF16
:100C000002500501000112000501626B636B646B09
:100C1000656B666B676B61C51BF660C51AF60001F4
:100C2000A3DD02C569F501C568F50A0E5E24E96E0B
:100C3000000E5F20EA6EECC46BF5ED52EFC46AF56E
:100C400005011C0E6A25E96E000E6B21EA6EECC4EC
:100C500077F5ED52EFC476F5765302E1775304E071
:100C6000685307E1695305E1620E016E050E026EDD
:100C7000E2D06C6B1C0E6A25E96E000E6B21EA6EE9
:100C8000ECC403F5ED52EFC401F5035204E1015049
:100C90006C5DD8B0CCD0180E6A25E96E000E6B21C1
:100CA000EA6EECC477F5ED52EFC476F5CD6B6CC50A
:100CB000CCF5CF6B0B0ECE6F000125EC00F002C51A
:100CC00079F501C578F5050176510124E96E775172
:100CD0000220EA6EECC46EF5ED52EFC46DF56EC500
:100CE0001BF66DC51AF600013FDD02C570F501C5A2
:100CF0006FF51A0E05016A25E96E000E6B21EA6E8A
:100D0000ECC477F5ED52EFC476F56C517625E96EBB
:100D1000000E7721EA6EEF50FE0BEF6E7051695DA9
:100D200005E303E168516F5D01E27FD07181736B70
:100D3000726B7351695D1BE303E16851725D17E2E9
:100D400060517225E96E61517321EA6EEFC476F548
:100D50006D517225E96E6E517321EA6EEF50765D2A
:100D600002E0719104D0722BD8B4732BE2D771B129
:100D700001D05BD01A0E6A25E96E000E6B21EA6E77
:100D8000ECC477F5ED52EFC476F56C517625E96E3B
:100D9000000E7721EA6EEF500109EF6E665302E113
:100DA000675307E07051655D08E303E164516F5DCF
:100DB00004E270C565F56FC564F5662BD8B4672B82
:100DC000662D07D0675305E16EC563F56DC562F505
:100DD0002CD0140E6A25E96E000E6B21EA6EECC46D
:100DE00075F5ED52EFC474F57551655D1EE303E1D1
:100DF0006451745D1AE262517425E96E6351752184
:100E0000EA6EEFC476F56D517425E96E6E51752169
:100E1000EA6EEF50765D05E075C565F574C564F55D
:100E200004D0742BD8B4752BDFD76C2B23D7620E6C
:100E3000016E050E026E000112000A0E4824E96ED2
:100E4000000E4920EA6EECC44BF5ED52EFC44AF5B2
:100E5000230E4A24E96E000E4B20EA6EEF50200B61
:100E600001E1C4D0120E4A24E96E000E4B20EA6E56
:100E7000ECC461F5ED52EFC460F549C55FF548C5B6
:100E80005EF5C2DE02C503F501C5E1F402C5E2F478
:100E9000050EEA6E4C0EE96E060E016EE6C4EEF427
:100EA000012EFCD750520DE151520BE1140E4A2491
:100EB000E96E000E4B20EA6EECC44FF5ED52EFC424
:100EC0004EF5140E4A24E96E000E4B20EA6EECC477
:100ED00053F5ED52EFC452F553504F5C20E303E15C
:100EE0004E50525C1CE248C500F54950016E026A42
:100EF000566E576A4C505224E96E4D505320EA6E9C
:100F0000EFC427F5EA6A56C5E9F449C526F548C590
:100F100025F502EC00F0522AD8B4532ADDD74FC58C
:100F200055F54EC554F5200E4A24E96E000E4B20AF
:100F3000EA6EECC403F5ED52EFC401F55550035CC5
:100F400019E303E10150545C15E248C500F549502E
:100F5000016E026A566E576AEA6AE96E49C526F55D
:100F600048C525F5200E276E02EC00F0542AD8B4AF
:100F7000552AD9D7200E4A24E96E000E4B20EA6E7E
:100F80004FC5ECF4ED524EC5EFF448C500F549509D
:100F9000016E026A566E576AEA6AE96E49C526F51D
:100FA00048C525F50D0E276E02EC00F04AC5E9F4A0
:100FB0004BC5EAF4ECC415F6ED52EFC414F649C57E
:100FC00013F648C512F6D1EC03F0120E4A24E96E6E
:100FD000000E4B20EA6EECC415F6ED52EFC414F689
:100FE00049C513F648C512F6D1EC03F012000A0EFB
:100FF0003F24E96E000E4020EA6EECC443F5ED524A
:10100000EFC442F5080E4224E96E000E4320EA6E5A
:10101000ECC449F5ED52EFC448F5485202E149529B
:101020002DE041521AE0060E4224E96E000E4320E4
:10103000EA6EECC449F5ED52EFC448F5080E4224BF
:10104000E96E000E4320EA6EECC403F5ED52EF505A
:10105000485C03E10350495C11E0415210E1060E87
:101060004224E96E000E4320EA6EECC449F5ED52CD
:10107000EFC448F5485203E1495201E1CAD040C5E6
:101080004CF53FC54BF5B7DC42C5E9F443C5EAF47E
:10109000ECC415F6ED52EFC414F640C513F63FC587
:1010A00012F6D1EC03F041520BE0060E4224E96E39
:1010B000000E4320EA6E010EEE2601E3EF2A0BD06C
:1010C000060E4224E96E000E4320EA6EFF0EEF2664
:1010D00002E2EE52ED06020E4224016E000E4320A3
:1010E000036E01C548F5496E060E4224E96E000EF6
:1010F0004320EA6EECC466F5ED52EFC465F503C516
:1011000064F501C563F552DD02C545F501C544F539
:10111000445204E1455202E1446A456A45C51BF662
:1011200044C51AF6B4EC03F002C547F501C546F50F
:10113000120E4224E96E000E4320EA6EECC449F51B
:10114000ED52EFC448F549C5EAF448C5E9F445C590
:10115000E2F444C5E1F447C502F546C501F5015284
:1011600002E0022A02D0025206E0E6C4EEF4012EAA
:10117000FCD7022EFAD7120E4224E96E000E43204D
:10118000EA6EECC449F5ED52EFC448F548504624E8
:10119000E96E49504720EA6EEF6A140E4224E96E68
:1011A000000E4320EA6E47C5ECF4ED5246C5EFF45D
:1011B000120E4224E96E000E4320EA6EECC415F6CE
:1011C000ED52EFC414F640C513F63FC512F6D1EC4C
:1011D00003F0200E4224016E000E4320036E496E80
:1011E000140E4224E96E000E4320EA6EECC403F5AF
:1011F000ED52EFC44AF549C5EAF401C5E9F403C567
:10120000ECF4ED524AC5EFF440C549F53FC548F549
:1012100014DE38EF09F00A0E3924E96E000E3A2088
:10122000EA6EECC43DF5ED52EFC43CF53B503F088F
:101230001FE23B507E081CE3230E3C24E96E000EA7
:101240003D20EA6EEF50F70BEF6E3B50410803E094
:101250003B5042080DE13B50410802E0000E01D036
:10126000010E3E6E3AC540F539C53FF5416EBFD619
:101270004BEF16F039500D080EE039500A080BE01C
:101280003950080808E03950090805E039507F084E
:1012900002E0000E01D0010E016E66EF16F00A0E9C
:1012A0003E24E96E000E3F20EA6EECC441F5ED529B
:1012B000EFC440F5120E4024E96E000E4120EA6EA4
:1012C000ECC461F5ED52EFC460F53FC55FF53EC576
:1012D0005EF59ADC02C503F501C5E1F402C5E2F44E
:1012E000050EEA6E420EE96E060E016EE6C4EEF4DD
:1012F000012EFCD7465203E1475201E153D1462C5F
:1013000002D0475214E0140E4024E96E000E412032
:10131000EA6EECC403F5ED52EFC401F50350455CF1
:10132000D8A0A4D004E14450015CD8B09FD0120EE4
:101330004024E96E000E4120EA6EECC44CF5ED52FB
:10134000EFC44BF54CC5EAF44BC5E9F443C5E2F4F0
:1013500042C5E1F445C502F544C501F5015202E07C
:10136000022A02D0025206E0E6C4EEF4012EFCD7B7
:10137000022EFAD7462C18D0475216E1120E4024FE
:10138000E96E000E4120EA6EECC44CF5ED52EFC45C
:101390004BF54B504424E96E4C504520EA6E200E2C
:1013A000EF6E442AD8B4452A120E4024E96E000E8E
:1013B0004120EA6EECC44CF5ED52EFC44BF54B50B6
:1013C0004424E96E4C504520EA6EEF6A120E402428
:1013D000E96E000E4120EA6EECC44CF5ED52EFC40C
:1013E0004BF5140E4024E96E000E4120EA6EECC469
:1013F0004EF5ED52EFC44DF54B504D24016E4C505F
:101400004E20036E01C54FF5506E3FC513F63EC525
:1014100012F6E8C415F601C514F6D1EC03F0140E6B
:101420004024E96E000E4120EA6E45C5ECF4ED5211
:1014300044C5EFF4200E4024016E000E4120036EDF
:101440004C6E140E4024E96E000E4120EA6EECC48E
:1014500003F5ED52EFC44DF54CC5EAF401C5E9F4CE
:1014600003C5ECF4ED524DC5EFF49CD03FC54CF5EF
:101470003EC54BF5FBEC04F0486A1C0E4024E96EB7
:10148000000E4120EA6EECC403F5ED52EFC401F505
:10149000035203E10150485C4AE21A0E4024E96E0F
:1014A000000E4120EA6EECC44CF5ED52EFC44BF552
:1014B00048504B24E96E000E4C20EA6EEFB001D08C
:1014C00034D0180E4024E96E000E4120EA6EECC4C0
:1014D0004CF5ED52EFC44BF50501CD6B48C5CCF58D
:1014E000CF6B0B0ECE6F000125EC00F04B500124AA
:1014F000E96E4C500220EA6EECC44AF5ED52EFC49E
:1015000049F53FC513F63EC512F64AC515F649C55D
:1015100014F6D1EC03F03FC513F63EC512F61CC518
:1015200015F61BC514F6D1EC03F0482AA6D740C522
:10153000E9F441C5EAF4ECC415F6ED52EFC414F633
:101540003FC513F63EC512F6D1EC03F0120E40244F
:10155000E96E000E4120EA6EECC415F6ED52EFC4C0
:1015600014F63FC513F63EC512F6D1EC03F0200E7B
:101570004024016E000E4120036E4C6E140E402478
:10158000E96E000E4120EA6EECC403F5ED52EFC4A3
:101590004DF54CC5EAF401C5E9F403C5ECF4ED5290
:1015A0004DC5EFF4120070C5D1F56FC5D0F572C509
:1015B000D3F571C5D2F56BEC05F002C574F501C524
:1015C00073F50501733D03D0743D01D009D06F510F
:1015D0007325016E70517421036E026E04D003D026
:1015E000000E016E026E0001DDEF0BF00501D0C5AB
:1015F000E9F4D1C5EAF4EFC4D4F5D3C503F5D2C5F7
:10160000E9F4D3C5EAF4EF50D45D15E1D1C503F593
:10161000D0C5E9F403C5EAF4EF5203E1000E016E10
:101620001FD0D1C503F5D051D02BD8B4D12BD22B9C
:10163000D8B4D32BDCD7D1C503F5D0C5E9F4D1C5D7
:10164000EAF4EFC4D4F5D3C503F5D2C5E9F4D3C5A4
:10165000EAF4EF50D45D02E2FF0E01D0010E016EFC
:101660000001120072C578F571C577F574C57AF579
:1016700073C579F505017A51785D3EE303E1775151
:10168000795D3AE275517925016E76517A21036EC2
:101690007851035C31E303E10150775D2DE2755130
:1016A0007727765178237551792776517A237653A7
:1016B00003E1755100081FE27751D8B47807770726
:1016C00077C57BF578C57CF57951D8B47A07790769
:1016D0007AC503F579C5E9F47AC5EAF4EFC47DF576
:1016E00078C5EAF477C5E9F47DC5EFF47551D8B44F
:1016F00076077507DCD720D0765303E175510008D3
:101700001BE278C57CF57751772BD8B4782B7B6FAB
:101710007AC5EAF47951792BD8B47A2BE96EEFC403
:101720007DF57CC5EAF47BC5E9F47DC5EFF4755120
:10173000D8B476077507E0D771C501F572C502F513
:10174000000112000501635302E164530FE0060E2D
:101750006125E96E000E6221EA6EECC46EF5ED5271
:10176000EFC46DF56D5303E16E5301E1BAD0666BC2
:10177000656B686B010E676F060E6125E96E000EE2
:101780006221EA6EECC403F5ED52EFC401F5685135
:10179000035C2CE303E16751015C28E361C5E9F4D4
:1017A00062C5EAF4ECC470F5ED52EFC46FF568C59C
:1017B00072F567C571F50001F6D602C566F501C57B
:1017C00065F566C5D1F565C5D0F564C5D3F563C5C6
:1017D000D2F50CDF015203E1050108D0000105013B
:1017E000666B656B672BD8B4682BC6D7655303E16E
:1017F000665301E176D0060E6125E96E000E622186
:10180000EA6EFF0EEF2602E2EE52ED06060E6125AD
:10181000E96E000E6221EA6EECC46EF5ED52EFC483
:101820006DF5010E6D25016E000E6E21036E0150E7
:10183000675D04E10350685D01E153D066C51BF6A6
:1018400065C51AF60001B4EC03F002C56AF501C5DE
:1018500069F5020E05016125E96E000E6221EA6E4E
:10186000ECC46EF5ED52EFC46DF5695165256F6FEF
:101870006A516621706F010E6F27000E702361C5DB
:10188000E9F462C5EAF4ECC403F5ED52EF506F5D84
:10189000006E03507059036E00506D5D006E035072
:1018A0006E5900C56BF56C6F010E69256D6F000EEA
:1018B0006A216E6F65516D25016E66516E21036E52
:1018C00001C56FF5706F66C572F565C571F5746F0A
:1018D00001C573F56CC576F56BC575F50001C2DE03
:1018E00005010001A5EF0CF056C51BF655C51AF60B
:1018F000B4EC03F002C558F501C557F5020E5324A8
:10190000E96E000E5420EA6EECC462F5ED52EFC4AD
:1019100061F5010E5724016E000E5820036E015030
:1019200005016251035C07E303E10150615D03E2DD
:10193000000E016EEDD054C562F553C561F556C574
:1019400064F555C563F50001FDD6060E5324E96E16
:10195000000E5420EA6EECC462F5ED52EFC461F55E
:101960000501615302E1625367E0060E5324E96EFC
:10197000000E5420EA6EECC466F5ED52EFC465F536
:1019800054C564F553C563F50001D6EC05F002C5F6
:101990005CF501C55BF55CC51BF65BC51AF6B4ECDE
:1019A00003F002C55EF501C55DF553C5E9F454C504
:1019B000EAF4ECC403F5ED52EF505B5C006E0350AB
:1019C0005C5800C561F50501626F5D5061275E508E
:1019D0006223010E6125596E000E62215A6E020EBD
:1019E0005324E96E000E5420EA6EECC462F5ED5209
:1019F000EFC461F55950615D5F6E5A506259606F76
:101A0000010E5724016E000E5820036E0350605DD6
:101A100005E303E101505F5C01E30ED0060E5324A1
:101A2000E96E000E5420EA6EFF0EEF2602E2EE523F
:101A3000ED0600018AD70501060E5324E96E000E5B
:101A40005420EA6EECC462F5ED52EFC461F56153C7
:101A500002E162532BE053C5E9F454C5EAF4ECC447
:101A600062F5ED52EFC461F5010E5724636F000E6D
:101A70005820646F61516325016E62516421036EC9
:101A800001C565F5666F53C5E9F454C5EAF4ECC4C5
:101A900074F5ED52EFC473F5726F01C571F55AC557
:101AA00076F559C575F50001DDDD050153C5E9F48D
:101AB00054C5EAF4ECC462F5ED52EFC461F5010ED1
:101AC0005724636F000E5820646F62C5EAF461C545
:101AD000E9F456C5E2F455C5E1F4026E63C501F5BB
:101AE000015202E0022A02D0025206E0E6C4EEF4FD
:101AF000012EFCD7022EFAD7060E5324E96E000EF3
:101B00005420EA6E010EEE2601E3EF2A010E016E6B
:101B100000012BEF12F05AC503F559C5E9F45AC577
:101B2000EAF45B50EF5C10E05AC503F559C5E9F4DF
:101B30005AC5EAF4EF5204E1000E016E026E08D0BD
:101B4000592AD8B45A2AE7D759C501F55AC502F51A
:101B5000DEEF0DF04F5203E1505201E15ED0200E56
:101B6000536E546A050E526E530E516E5590559237
:101B7000566A576A57504F24E96E000E5020EA6E9D
:101B8000EFC458F558523AE0572A55A202D0559260
:101B90001ED058505C0803E15582ECD718D058503D
:101BA000220803E15570586A12D055B010D052C5C2
:101BB0005AF551C559F558C55BF5ADD702C55AF56B
:101BC00001C559F5595202E15A5201E0586A58527A
:101BD0000BE1565212E0010E565C4F24E96E000EE6
:101BE0005020EA6EEF5209E056504F24E96E000E85
:101BF0005020EA6E58C5EFF4562ABCD756504F24F1
:101C0000E96E000E5020EA6EEF6A010E56244F2452
:101C1000E96E000E5020EA6EEF6A6CEF13F00501DA
:101C2000CA5302E1CB5306E0CAC5E9F4CBC5EAF4D6
:101C3000EF5204E1000E016E026E1FD0CC6BCE6B32
:101C4000010ECD6FCC51CA25E96E000ECB21EA6E94
:101C5000EF520DE1010ECC25CA25E96E000ECB2115
:101C6000EA6EEF5201E105D0CD2BD8B4CE2BCC2BB0
:101C7000E9D7CDC501F5CEC502F5000157EF0FF04C
:101C8000550E0501CE6F6E0ECF6F6B0ED06F6E0EC0
:101C9000D16F6F0ED26F770ED36F6E0ED46F200E92
:101CA000D56F630ED66F6F0ED76F6D0ED86FD96F6D
:101CB000610EDA6F6E0EDB6F640EDC6F3A0EDD6F55
:101CC000200EDE6F220EDF6FE06BCBC513F6CAC5A8
:101CD00012F6050E0601156FCE0E146F0001D1EC41
:101CE00003F0CBC513F6CAC512F6CDC515F6CCC5A3
:101CF00014F6D1EC03F0220E0501E16F2E0EE26F17
:101D0000200EE36F570EE46F720EE56F690EE66FFB
:101D1000740EE76F650EE86F200EE96F220EEA6F12
:101D2000680EEB6F650EEC6F6C0EED6F700EEE6F64
:101D3000220EEF6F200EF06F660EF16F6F0EF26FD6
:101D4000720EF36F200EF46F610EF56F200EF66FBA
:101D50006C0EF76F690EF86F730EF96F740EFA6FF1
:101D6000200EFB6F6F0EFC6F660EFD6F200EFE6F78
:101D7000610EFF6F760E0601006F610E016F690E36
:101D8000026F6C0E036F610E046F620E056F6C0EB6
:101D9000066F650E076F200E086F630E096F6F0EDA
:101DA0000A6F6D0E0B6F0C6F610E0D6F6E0E0E6F66
:101DB000640E0F6F730E106F116BCBC513F6CAC58F
:101DC00012F6050E156FE10E146F0001D1EC03F051
:101DD000CBC513F6CAC512F61CC515F61BC514F6FD
:101DE000D1EC03F012000A0E2824E96E000E29201F
:101DF000EA6EECC458F5ED52EFC457F51C0E5724AB
:101E0000E96E000E5820EA6EECC4C5F5ED52EFC441
:101E1000C4F50501C45345E1C55343E1480E596E6D
:101E2000650E5A6E6C0E5B6E700E5C6E200E5D6EF3
:101E3000690E5E6E730E5F6E200E606F6E0E616FC8
:101E40006F0E626F740E636F200E646F610E656FAC
:101E5000760E666F610E676F690E686F6C0E696F44
:101E6000610E6A6F620E6B6F6C0E6C6F650E6D6F3C
:101E70006E6B29C513F628C512F6050E0601156FFF
:101E8000590E146F0001D1EC03F029C513F628C5D3
:101E900012F61CC515F61BC514F6D1EC03F085D25D
:101EA00005012BC5CBF52AC5CAF50001B8D602C578
:101EB00070F501C56FF505016F53D8A4DBD07053E1
:101EC000D8A4D8D0716B1C0E5724E96E000E582090
:101ED000EA6EECC403F5ED52EFC401F5035204E1E0
:101EE0000150715DD8B0C5D0200E726F2A0E736F8D
:101EF000200E746F756B29C513F628C512F6050EF2
:101F00000601156F720E146F0001D1EC03F0180E6C
:101F10005724E96E000E5820EA6EECC4C5F5ED5268
:101F2000EFC4C4F50501CD6B71C5CCF5CF6B0B0EBD
:101F3000CE6F000125EC00F002C5C7F501C5C6F55E
:101F40000501C4510124E96EC5510220EA6EECC4BA
:101F500015F6ED52EFC414F629C513F628C512F68E
:101F60000001D1EC03F029C513F628C512F61CC5F3
:101F700015F61BC514F6D1EC03F0180E5724E96EC4
:101F8000000E5820EA6EECC4C5F5ED52EFC4C4F55E
:101F90000501CD6B71C5CCF5CF6B0B0ECE6F00017B
:101FA00025EC00F001C5C6F5020E05010124016E05
:101FB000000E0220036E0150C425E96EC5510320B6
:101FC000EA6EECC4C7F5ED52EFC4C6F5C65302E1A4
:101FD000C7534DE028C500F52950016E026AC46F51
:101FE000C56BEA6AE96E29C526F528C525F5090EEF
:101FF000276E000102EC00F0180E5724E96E000E67
:102000005820EA6EECC4C5F5ED52EFC4C4F50501E5
:10201000CD6B71C5CCF5CF6B0B0ECE6F000125ECEF
:1020200000F001C5C6F5020E05010124016E000E87
:102030000220036E0150C425E96EC5510320EA6EEB
:10204000ECC415F6ED52EFC414F629C513F628C5F5
:1020500012F60001D1EC03F029C513F628C512F6DB
:102060001CC515F61BC514F6D1EC03F00501712B48
:102070002AD79CD16F2D29D17053D8A426D1776B44
:10208000766B2BC5CBF52AC5CAF5CD6B010ECC6F8F
:102090000001B5EC05F002C579F501C578F505013B
:1020A0007A917B6B1C0E5724E96E000E5820EA6E65
:1020B000ECC403F5ED52EFC401F5035203E1015006
:1020C0007B5D5CE2180E5724E96E000E5820EA6E24
:1020D000ECC4C5F5ED52EFC4C4F5CD6B7BC5CCF5B2
:1020E000CF6B0B0ECE6F000125EC00F002C5C7F5DB
:1020F00001C5C6F50501C4510124E96EC551022090
:10210000EA6EECC4D1F5ED52EFC4D0F579C5D3F544
:1021100078C5D2F50001F6EC0AF001522CE1180E58
:102120005724E96E000E5820EA6EECC4C5F5ED5256
:10213000EFC4C4F50501CD6B7BC5CCF5CF6B0B0EA1
:10214000CE6F000125EC00F001C5C6F5020E0501B9
:102150000124016E000E0220036E0150C425E96EB9
:10216000C5510320EA6EECC477F5ED52EFC476F565
:102170007A8104D0000105017B2B94D77AA154D039
:10218000765302E1775350E0200E7C6F2A0E7D6F6C
:10219000200E7E6F7F6B29C513F628C512F6050E3B
:1021A0000601156F7C0E146F0001D1EC03F029C5F8
:1021B00013F628C512F679C515F678C514F6D1ECD4
:1021C00003F029C513F628C512F61CC515F61BC564
:1021D00014F6D1EC03F028C500F52950016E026A0F
:1021E0000501C46FC56BEA6AE96E29C526F528C5E5
:1021F00025F5090E276E000102EC00F029C513F643
:1022000028C512F677C515F676C514F6D1EC03F09D
:1022100029C513F628C512F61CC515F61BC514F6FC
:10222000D1EC03F050D005017AA143D0480E806F65
:10223000650E816F6C0E826F700E836F200E846F3F
:10224000690E856F730E866F200E876F6E0E886F16
:102250006F0E896F740E8A6F200E8B6F610E8C6FFC
:10226000760E8D6F610E8E6F690E8F6F6C0E906F94
:10227000610E916F620E926F6C0E936F650E946F8C
:10228000956B29C513F628C512F6050E0601156FC4
:10229000800E146F0001D1EC03F029C513F628C598
:1022A00012F61CC515F61BC514F6D1EC03F00BD0C5
:1022B000050129C5CBF528C5CAF579C5CDF578C581
:1022C000CCF50001DDDC71D00501430E966F6F0E79
:1022D000976F6D0E986F996F610E9A6F6E0E9B6F70
:1022E000640E9C6F200E9D6F220E9E6F680E9F6F76
:1022F000650EA06F6C0EA16F700EA26F220EA36F01
:10230000200EA46F720EA56F650EA66F630EA76FE9
:10231000650EA86F690EA96F760EAA6F650EAB6F7A
:10232000730EAC6F200EAD6F6F0EAE6F6E0EAF6F93
:10233000650EB06F200EB16F6F0EB26F720EB36F7D
:10234000200EB46F7A0EB56F650EB66F720EB76F52
:102350006F0EB86F200EB96F610EBA6F720EBB6F41
:10236000670EBC6F750EBD6F6D0EBE6F650EBF6FD5
:102370006E0EC06F740EC16F730EC26FC36B29C532
:1023800013F628C512F6050E0601156F960E146F8A
:102390000001D1EC03F029C513F628C512F61CC5BF
:1023A00015F61BC514F6D1EC03F00501000112006F
:1023B00012000A0E3E24E96E000E3F20EA6EECC4C5
:1023C00041F5ED52EFC440F54280436A140E4024BB
:1023D000E96E000E4120EA6EECC403F5ED52EFC445
:1023E00001F5035203E10150435C18E2120E402450
:1023F000E96E000E4120EA6EECC450F5ED52EFC4D8
:102400004FF543504F24E96E000E5020EA6EEF5016
:10241000200802E0429002D0432AD8D742A001D03F
:1024200022D2020E4024016E000E4120036E01C52F
:102430004FF5506E120E4024E96E000E4120EA6EF8
:10244000ECC456F5ED52EFC455F503C554F501C57E
:1024500053F574EF0CF0456A446A476A466A429243
:10246000486A140E4024E96E000E4120EA6EECC466
:1024700003F5ED52EFC401F5035203E10150485C4E
:1024800065E2120E4024E96E000E4120EA6EECC4B3
:1024900050F5ED52EFC44FF548504F24E96E000E51
:1024A0005020EA6EEFC449F5495020081CE146521D
:1024B00014E1475212E1120E4024E96E000E412051
:1024C000EA6EECC450F5ED52EFC44FF548504F247E
:1024D000E96E000E5020EA6EEF6A445202E1455266
:1024E00001E0428231D0445216E1455214E1120E0D
:1024F0004024E96E000E4120EA6EECC450F5ED5226
:10250000EFC44FF548504F24016E000E502001C516
:1025100044F5456E19D0465217E1475215E142A2E3
:1025200013D0120E4024E96E000E4120EA6EECC476
:1025300050F5ED52EFC44FF548504F24016E000E98
:10254000502001C546F5476E482A8BD7120E40240D
:10255000E96E000E4120EA6EECC450F5ED52EFC476
:102560004FF5140E4024E96E000E4120EA6EECC4D3
:1025700052F5ED52EFC451F5010E5126000E5222D4
:102580004F505124E96E50505220EA6EEF6A445287
:1025900003E1455201E167D14A6A1C0E4024E96E0D
:1025A000000E4120EA6EECC403F5ED52EFC401F5D4
:1025B000035204E101504A5CD8B003D1180E402404
:1025C000E96E000E4120EA6EECC450F5ED52EFC406
:1025D0004FF50501CD6B4AC5CCF5CF6B0B0ECE6F19
:1025E000000125EC00F002C552F501C551F54F5030
:1025F0000124E96E50500220EA6EECC4D3F5ED528E
:10260000EFC4D2F545C5D1F544C5D0F5F6EC0AF0D6
:102610000152D8A4D4D0180E4024E96E000E4120F7
:10262000EA6EECC450F5ED52EFC44FF50501CD6BE9
:102630004AC5CCF5CF6B0B0ECE6F000125EC00F038
:1026400001C551F5070E0124016E000E0220036E34
:1026500001504F24E96E50500320EA6EEFC451F54B
:10266000ECC452F5ECC453F5ECC454F5515207E1F7
:10267000525205E1535203E1545201E1A2D0180E27
:102680004024E96E000E4120EA6EECC450F5ED5294
:10269000EFC44FF50501CD6B4AC5CCF5CF6B0B0EE2
:1026A000CE6F000125EC00F002C552F501C551F5D1
:1026B000040E0124016E000E0220036E01504F240F
:1026C000E96E50500320EA6EEFA006D047C550F5E2
:1026D00046C54FF5AAEF0DF0230E4024E96E000E1B
:1026E0004120EA6EEF501009EF6E180E4024E96E9B
:1026F000000E4120EA6EECC450F5ED52EFC44FF5E8
:102700000501CD6B4AC5CCF5CF6B0B0ECE6F00012A
:1027100025EC00F002C552F501C551F5070E012464
:10272000016E000E0220036E01504F24006E5050C7
:102730000320016E026AD8B0022A516E526A180E46
:102740004024E96E000E4120EA6EECC454F5ED52CF
:10275000EFC453F50501CD6B4AC5CCF5CF6B0B0E1D
:10276000CE6F000125EC00F001C555F5050E0124E2
:10277000016E000E0220036E01505324E96E545086
:102780000320EA6EECC42DF5ED52EFC42CF552C5D2
:10279000EAF451C5E9F43FC529F53EC528F547C51A
:1027A0002BF546C52AF502EC00F0230E4024E96E15
:1027B000000E4120EA6EEF50EF0BEF6E54D04A2A24
:1027C000ECD6040E3E24E96E000E3F20EA6EEFC404
:1027D0004FF5ECC450F5ECC451F5ECC452F54F5232
:1027E00006E1505204E1515202E1525232E045C535
:1027F0004CF544C54BF547C54EF546C54DF5230E82
:102800004024E96E000E4120EA6EEF501009EF6E91
:10281000040E3E24006E000E3F20016E026AD8B006
:10282000022A4F6E506AEA6AE96E3FC52FF53EC52F
:102830002EF5050E316E4B0E306E02EC00F0230EBD
:102840004024E96E000E4120EA6EEF50EF0BEF6E70
:102850000AD03FC5CBF53EC5CAF545C5CDF544C543
:10286000CCF540EC0EF083EF14F00A0E3924E96E3B
:10287000000E3A20EA6EECC43DF5ED52EFC43CF593
:10288000220E3C24E96E000E3D20EA6EEF500D084A
:1028900003E13B500A080CE0220E3C24E96E000ED6
:1028A0003D20EA6EEF500A0804E13B500D0801E1BB
:1028B000ECD03B500D0803E03B500A086CE13AC5F0
:1028C0003FF539C53EF54FEC09F03AC513F639C569
:1028D00012F61CC515F61BC514F6D1EC03F0140E48
:1028E0003C24E96E000E3D20EA6EECC43FF5ED524B
:1028F000EFC43EF53E5202E13F5205E03AC53FF5D6
:1029000039C53EF556D5140E3C24E96E000E3D2027
:10291000EA6EEC6AED52EF6A120E3C24E96E000E8C
:102920003D20EA6EECC43FF5ED52EFC43EF5140EC7
:102930003C24E96E000E3D20EA6EECC441F5ED52F8
:10294000EFC440F53E504024E96E3F504120EA6E0E
:10295000EF6A200E3C24E96E000E3D20EA6EEC6A20
:10296000ED52EF6A060E3C24E96E000E3D20EA6E41
:10297000EC6AED52EF6A3CC5E9F43DC5EAF4ECC4FB
:1029800015F6ED52EFC414F63AC513F639C512F632
:10299000D1EC03F07AD03B50080803E03B507F08AD
:1029A0006BE1140E3C24E96E000E3D20EA6EECC48F
:1029B0003FF5ED52EFC43EF53E5202E13F525CE07E
:1029C00039C500F53A50016E026A3E6E3F6AEA6A06
:1029D000E96E3AC526F539C525F5080E276E02ECD5
:1029E00000F039C500F53A50016E026A3E6E3F6A4A
:1029F000EA6AE96E3AC526F539C525F5200E276E37
:102A000002EC00F039C500F53A50016E026A3E6EE4
:102A10003F6AEA6AE96E3AC526F539C525F5080E1A
:102A2000276E02EC00F0140E3C24E96E000E3D20EF
:102A3000EA6EFF0EEF2602E2EE52ED06120E3C2485
:102A4000E96E000E3D20EA6EECC43FF5ED52EFC496
:102A50003EF5140E3C24E96E000E3D20EA6EECC4F7
:102A600041F5ED52EFC440F53E504024E96E3F5031
:102A70004120EA6EEF6A09D03B50090806E13AC5E9
:102A80003FF539C53EF54FEC09F06FEF16F03950C0
:102A90001F0803E239507E0802E2000E01D0010E49
:102AA000016E73EF16F00A0E3924E96E000E3A201B
:102AB000EA6EECC43DF5ED52EFC43CF5140E3C2437
:102AC000E96E000E3D20EA6EECC43FF5ED52EFC416
:102AD0003EF5020E3E26000E3F22160E3C24E96E05
:102AE000000E3D20EA6EECC403F5ED52EFC401F593
:102AF00003503F5C05E303E101503E5C01E356D027
:102B0000120E3C24E96E000E3D20EA6EECC43FF547
:102B1000ED52EFC43EF5140E3C24E96E000E3D204C
:102B2000EA6EECC441F5ED52EFC440F53E5040244E
:102B3000E96E3F504120EA6E3BC5EFF4140E3C2491
:102B4000E96E000E3D20EA6E010EEE2601E3EF2A4B
:102B5000120E3C24E96E000E3D20EA6EECC43FF5F7
:102B6000ED52EFC43EF5140E3C24E96E000E3D20FC
:102B7000EA6EECC441F5ED52EFC440F53E504024FE
:102B8000E96E3F504120EA6EEF6A39C500F53A50D0
:102B9000016E026A3E6E3F6AEA6AE96E3AC526F540
:102BA00039C525F53BC527F502EC00F07CEF16F0A2
:102BB0003450E96E35C5EAF4EFC439F5ECC43AF5A2
:102BC000ECC43BF5ECC43CF5395207E13A5205E15F
:102BD0003B5203E13C5201E1D6D00A0E3424E96EA7
:102BE000000E3520EA6EECC437F5ED52EFC436F531
:102BF000230E3624E96E000E3720EA6EEF50020BEA
:102C000018E1230E3624E96E000E3720EA6EEF50ED
:102C10000209EF6E36C5E9F437C5EAF4ECC415F6DF
:102C2000ED52EFC414F635C513F634C512F6D1ECE7
:102C300003F00A0E3624016E000E3720036E01C524
:102C400039F53A6E3C6E01C53BF503EF04F00150D7
:102C5000021061E00A0E3624016E000E3720036E6A
:102C600001C539F53A6E3C6E01C53BF58BEF04F0BA
:102C700001C538F5230E3624E96E000E3720EA6EC2
:102C8000EF50080B09E035C53AF534C539F538C5BC
:102C90003BF50BEF09F030D0220E3624E96E000E22
:102CA0003720EA6EEF501B080DE138505B080AE14F
:102CB000230E3624E96E000E3720EA6EEF50080925
:102CC000EF6E1AD038C539F53AEF09F0015208E035
:102CD00035C53AF534C539F538C53BF5C6D50CD000
:102CE00038C539F5D4D6015207E035C53AF534C5B3
:102CF00039F538C53BF5D7D635C549F534C548F55E
:102D00001DEC07F0220E3624E96E000E3720EA6E25
:102D100038C5EFF48ED7230E3624E96E000E372027
:102D2000EA6EEF50010B2FE0140E3624E96E000E10
:102D30003720EA6EEC6AED52EF6A120E3624E96E25
:102D4000000E3720EA6EECC43AF5ED52EFC439F5C7
:102D5000140E3624E96E000E3720EA6EECC43CF502
:102D6000ED52EFC43BF539503B24E96E3A503C201C
:102D7000EA6EEF6A230E3624E96E000E3720EA6E03
:102D8000EF50FE0BEF6E44EF17F0F86AD69AB06B77
:102D9000AF6BB36B080EB16F600EAD6FA7EF03F0B2
:102DA00002C524F501C523F50401006B086B106B07
:102DB000186B206B286B0001716B726B736B706BFF
:102DC000756B766B776B746B0BD002050400000F8C
:102DD000450A000A8001001D050D0A003E20000082
:102DE000000EF86E2D0EF76ECA0EF66E0900F55045
:102DF000006E000A13E00900F550016EE8BE05D030
:102E00003F0BEA6E0900F5C4E9F401BC090001AC0E
:102E10000900F5C4EEF4004EE9D7F9D7F86A0CECD6
:102E200000F002C533F501C532F5080E3224E96E13
:102E3000000E3320EA6EEC6AED52100EEF6E040EB7
:102E40002324E96E000E2420EA6E000E026E230E8B
:102E5000016EB00EEF6E01C5ECF402C5ECF4EC6A45
:102E600023C5E9F424C5EAF4000E026E070E016ED4
:102E7000A00EEF6E01C5ECF402C5ECF4EC6A24C5BB
:0C2E800035F523C534F594D6FAD7FFD7FA
:020000040030CA
:100000008CEFF7DF9FFFDFFFFFFFFFFFFFFFFFFF2B
:10001000FFFFFFFFFFFFFFFFFFFFFFFFFFFFFFFFF0
:04002000FFFFFFFFE0
:00000001FF
;PIC18F57Q84
;CRC=83B3  CREATED="20-Nov-23 09:01"
